:020000040800F2
:10000000B1AA010000000000000000000000000094
:10001000000000000000000000000000261E000894
:1000200000000000000000000000000000000000D0
:1000300000000000000000000000000000000000C0
:1000400000000000000000000000000000000000B0
:1000500000000000000000000000000000000000A0
:100060000000000000000000000000000000000090
:100070000000000000000000000000000000000080
:100080000000000000000000000000000000000070
:100090000000000000000000000000000000000060
:1000A0000000000000000000000000000000000050
:1000B00000000000000000000000000020570008C1
:1000C0000000000000000000000000000000000030
:1000D0000000000000000000000000000000000020
:1000E000781E000800000000000000000000000072
:1000F000000000009A480008000000000000000016
:1001000000000000000000000000000000000000EF
:1001100000000000000000000000000000000000DF
:1001200000000000000000000000000000000000CF
:1001300000000000000000000000000000000000BF
:1001400000000000000000000000000000000000AF
:1001500000000000000000008A48000873700430AE
:10016000170500001305C5FF8545F605637BB5003F
:1001700089816378B500170500001305C5002E9529
:1001800002859302002073A0027D970200009382F3
:1001900062E773907230976200009382E21E739060
:1001A000C27E73E0C07E976200009382A2157390B6
:1001B000523097110018938161B317810018130111
:1001C00061E417850000130565C197050018938544
:1001D00065E3170600181306E63263FAC5008322AA
:1001E000050023A0550011059105E3EAC5FE17059A
:1001F000001813052531975500189385254163771D
:10020000B500232005001105E36DB5FE73F0023241
:1002100017750000130525F197700000E78040EC8A
:1002200097700000E780A0F397200000E78000B5FA
:100230000145814597000000E780004817730000E2
:10024000670003EB01A073E00232828073F0023298
:0402500082800000A8
:100280000000000000000000010203040607080946
:100290000A50726F6772616D2068617320657869BA
:1002A000746564207769746820636F64653A000040
:1002B000307800006E6D690A000000007472617091
:1002C0000A00000046415400464154333200000009
:1002D000222A2B2C3A3B3C3D3E3F5B5D7C7F00005D
:1002E000000000000040AF401603470069006700AF
:1002F000610044006500760069006300650000004D
:1003000038034700440033003200200055005300FA
:10031000420020004300440043002000410043000D
:100320004D00200069006E002000460053002000B0
:100330004D006F0064006500000000002E034700C0
:100340004400330032005800580058002D0033009C
:100350002E0030002E0030002D0037007A003800CB
:100360007800390079006500720000001201000277
:1003700002000040E9288A01000101020301000097
:10038000C87D0008E8020008000300083C030008DC
:10039000A04D0008D04F0008CA4B0008504F00087D
:1003A000CA4B0008EC4E0008FE4B000868500008DD
:1003B0005A4E0008F84C0008964E0008C24E00083D
:1003C0006C5000080000000073746172743000000B
:1003D000737461727431000073746172743200005E
:1003E00073746F707030000073746F707031000040
:1003F00073746F70703200003031323334353637F9
:100400003839414243444546000000005348572CC8
:10041000000000002573252E34782C25730D0A006A
:10042000522C310D00000000746573740000000050
:1004300046494E41502E43535600000054696D65A5
:100440003B41303B41313B41323B41333B41343B0B
:1004500041353B41363B41370A0000002557562CB9
:10046000303037322C30312500000000656D70745B
:10047000790000002557562C303037322C3030258B
:10048000000000002557562C303037322C303225F2
:100490000000000000000000000000000040AF402D
:1004A00084640000D4630000DA630000D4630000B9
:1004B00076640000D4630000DA6300008464000006
:1004C0008464000076640000DA630000BA63000010
:1004D000BA630000BA630000DE6300008A680000AF
:1004E0008A680000A2680000846800008468000038
:1004F00030690000A26800008468000030690000D4
:1005000084680000A2680000826800008268000021
:100510008268000030690000000102020303030347
:100520000404040404040404050505050505050583
:100530000505050505050505060606060606060663
:10054000060606060606060606060606060606064B
:100550000606060606060606070707070707070733
:10056000070707070707070707070707070707071B
:10057000070707070707070707070707070707070B
:1005800007070707070707070707070707070707FB
:1005900007070707070707070808080808080808E3
:1005A00008080808080808080808080808080808CB
:1005B00008080808080808080808080808080808BB
:1005C00008080808080808080808080808080808AB
:1005D000080808080808080808080808080808089B
:1005E000080808080808080808080808080808088B
:1005F000080808080808080808080808080808087B
:10060000080808080808080808080808080808086A
:10061000080808080808080800000000000000009A
:1006200000000000000000000000000000000000CA
:1006300000000000000000000000000000000000BA
:1006400000000000000000000000000000000000AA
:10065000000000000000000000000000000000009A
:10066000000000000000000000000000000000008A
:100670000000000000000000232D302B20000000AF
:10068000686C4C0065666745464700003031323380
:10069000343536373839414243444546000000007E
:1006A00030313233343536373839616263646566E8
:1006B000000000007D73130101AA232E1154232C86
:1006C0008154232A9154232821552326315523244C
:1006D00041552322515523206155232E7153232C3C
:1006E0008153232A91532328A1532326B1531A91CE
:1006F00097500000E780A04F01478146814705469B
:1007000085451305C07B02C297300000E780E0C337
:100710001305400697300000E780406F05697D743F
:10072000930709528A97130504DD370B0008054625
:1007300093058B423E9597200000E780A02A9307FF
:1007400009528A972AC0130584BA3E959730000053
:10075000E780E0A11305001997300000E780006BE7
:10076000130600058145281097700000E78020A738
:10077000130600058145A81897700000E78020A6A1
:1007800097600000E780608A97500000E78060640F
:1007900097100000E780606197500000E78060CA12
:1007A00097500000E7802013054597400000E78040
:1007B0006014056681451305015297700000E780BB
:1007C00000A2B704002023A0045497500000E78043
:1007D00000F397600000E780A08081451305500773
:1007E00097500000E78060ECB709000893070952B2
:1007F0009389893C930A44AE8A97814B014A93843A
:100800000454138C8906B70C0020BE9A9760000030
:10081000E780E0AD85472A896300F51889476300C2
:10082000F5246DF5856D93870D528A97130984B071
:100830003E99D1454A8597600000E78020969387CE
:100840000D528A97130D84B53E9DCA856A859750CF
:100850000000E78040431306000581454A859770F4
:100860000000E780C097E167050A9387076A631273
:10087000FA021306000581456A8597700000E7803B
:10088000009663860B2697500000E780E009814BB5
:10089000014A856793870752130984B58A973E9961
:1008A000938549094A8597700000E780209963176E
:1008B00005243705000895451305C54697500000E7
:1008C000E78040681305200397300000E78000545C
:1008D0003705000899451305853C97500000E780CF
:1008E00060661306000581454A8597700000E78021
:1008F000008F97500000E7806029B707002013059C
:10090000B54123AEA75297500000E78060FF054530
:1009100097600000E780409E854785451305500796
:100920009CC097500000E78040D897500000E780B7
:1009300020FD9C40E38C07EC97500000E780E033FB
:10094000A147E3D5A7ECA1451305015223000152AD
:1009500097500000E7808035E35AA0EA1305015262
:1009600097700000E780008F8567938707528A970A
:10097000130984BA3E992A86D686930501524A8580
:1009800097200000E780205E4A8597200000E780DE
:10099000007E230001529DBD97000000E780E05FCC
:1009A000856D93870D528A97130504DD05469305DF
:1009B0008B423E9597200000E780C00293870D523E
:1009C0008A97130D84BA3E9D2AC06A85972000003D
:1009D000E780E0792946E2856A8597200000E78074
:1009E00020062AC097500000E780C03A79469385D8
:1009F0004907280097600000E780007D93870D522B
:100A00008A97130584AE3E9597500000E78020201A
:100A100093870C5323A00700B707002023AC07528D
:100A20000145B707002023AA075297600000E7801E
:100A3000A08C23A024013709002097500000E780F4
:100A4000E0149307C9539C43E349F5FE9750000017
:100A5000E78000F097000000E780C05345BB894560
:100A60003705004097100000E780A0D197000000F4
:100A7000E780A0520567930707528A97338987005A
:100A800093070752130D84BA8A97230009003E9DED
:100A9000A1454A8597500000E780002905E5856754
:100AA000938707528A97130584BA3E9597300000C2
:100AB000E780E086014523A0040097600000E780FE
:100AC000A083A9B34A8597600000E780A0782A86B2
:100AD000D686CA856A8597200000E780C0486A8567
:100AE00097200000E780A0682300090055B79750C1
:100AF0000000E780A0E4014A854B61BB9385C90AE9
:100B00004A8597600000E780607325E53705000897
:100B100095451305C54697500000E780A042130590
:100B2000200397300000E780602E370500089945C4
:100B30001305053E97500000E780C04013060005EE
:100B400081454A8597600000E780606909459750B4
:100B50000000E780607A8145130550079750000038
:100B6000E780A0B423A0040097500000E78080DA5B
:100B7000C9B39385C90B4A8597600000E780006C74
:100B8000E31905DA1306000581454A8597600000E0
:100B9000E780E06479BB4111B727014006C693871F
:100BA0000740630BF500B737014093870780630365
:100BB000F502B24041018280130590309700000099
:100BC000E780C04E13059030B2404101170300008A
:100BD0006700434F1305A03097000000E780004DE9
:100BE0001305A030D5B7B727014003A74740B70684
:100BF000F1FFFD16758F23A2E74003A74740598DEB
:100C000023A2A74082801C4599C50567130707806A
:100C1000D98F1CC582807D771307F77FF98FD5BFE9
:100C20001C45858B89E71C4593E717001CC582800E
:100C30001C451307850093E787001CC51C43A18B47
:100C4000F5FF1C4593E747001CC51C43918BF5FF3E
:100C500082801C4593E707101CC582805C41797730
:100C60001307F77FF98F5CC185476386F5008947D5
:100C70006386F50282805C4149777D17F98F5CC1FC
:100C80005C417D1639673606798E5D8E50C15C41B8
:100C9000056713070780D98F5CC182805C410567B7
:100CA000DDBF85476386F50089476382F502828050
:100CB0005C55370710FF7D17F98F5CD55C557D16A5
:100CC00052063707F000798E5D8E50D582801C5D0C
:100CD0003707D0FF7D17F98F1CDD1C5D7D1652068E
:100CE00037073000798E5D8E10DD82801547636393
:100CF000B704B385E50203284503FD47B397B70062
:100D000093C7F7FFB3F70701B315B600DD8D4CD9D4
:100D1000A54763E9C7068D473306F6020C491D4710
:100D20003317C7001347F7FF6D8F3396C600598EF0
:100D300010C98280AD4763E3B702E915B385E502C8
:100D400003280503FD47B397B70093C7F7FFB3F731
:100D50000701B315B600DD8D0CD95DBFBD47E3E9D2
:100D6000B7FAD115B385E5020328C502FD47B3974D
:100D7000B70093C7F7FFB3F70701B315B600DD8DD2
:100D80004CD579B7C54763E1C7028D47591633067D
:100D9000F60258459D47B397C70093C7F7FFF98FF1
:100DA0003396C600D18F5CC5828085476386F50087
:100DB0008947638DF50082801445B705F2FFFD1564
:100DC000ED8E14C51845518F18C582801845E576FB
:100DD000FD16758F18C51C45D18F1CC5828093F7F1
:100DE0001500898909CE91C71C4537071000D98F96
:100DF0001CC589C51C452167D98F1CC5828099C730
:100E00001C453707F0FF7D17F98F1CC5E5D91C4538
:100E100061777D17F98FD5B793F7150091C71C45FA
:100E200037074000D98F1CC5898991C51C453707F4
:100E30002000D98F1CC5828008416D8D3335A000FC
:100E400082801C4193C5F5FFFD8D0CC18280B707E0
:100E50000240938707406316F500914763F3B7009C
:100E600001A0D147B387F502AA979847799B98C705
:100E700023A4070023A6070023A8070023AA07002E
:100E8000584193972500BD45B395F500D98D4CC1C8
:100E90008280B7070240938707406316F5009147A9
:100EA00063F3B70001A0D147B385F5021C42717707
:100EB0001307F70F2E951CC91C465CC98357060102
:100EC0005CC51C4554467D8F5C42D58F544AD58FF6
:100ED000D98F1CC50347860185476316F7021C4559
:100EE00093E707041CC50347960185476311F70282
:100EF0001C4593E707081CC58347A60189EF1C45DD
:100F0000BD9B1CC582801C4593F7F7FBE1BF1C45C8
:100F100093F7F7F7CDB71C4593E70701DDB7B707A0
:100F20000240938707406316F500914763F3B700CB
:100F300001A0D147B385F5022E951C4593E7070222
:100F40001CC58280B7070240938707406316F500EF
:100F5000914763F3B70001A0D147B385F5022E9501
:100F60001C4593F7F7FD1CC58280B70702409387A5
:100F700007406316F500914763F3B70001A0D1471E
:100F8000B385F5022E951C4593E717001CC582809A
:100F9000F36704308280F37704308280011106CE3B
:100FA00022CC32C42A842EC697100000E780A0C944
:100FB000B245228597100000E780E0CA22462285CC
:100FC0006244F240B285056117130000670023CF29
:100FD000B707014023AAA740828093F7050193F841
:100FE000F50099C3B3E8C8008147054EBD4E130F05
:100FF0008002930F800421433316FE00758E1DC2BC
:1010000013972700832205003398EE001348F8FF5A
:10101000337858003397E800336707016399E50593
:1010200050C918C18507E39967FC054EBD4E130FE3
:101030008002930F800441433316FE00758E05C66F
:10104000139727000117832245003398EE001348B9
:10105000F8FF337858003397E80033670701639C43
:10106000E50150C958C18507E39867FC8280E39A7F
:10107000F5FB10C97DB7E397F5FF10C9E5B70CC9BB
:1010800082804CC9828019C20CC982804CC982807E
:10109000B7170240135765003E9714438547B3972F
:1010A000A700D58F1CC38280B71702401357650075
:1010B0003E9714438547B397A700D58F1CC3828002
:1010C000B7170240135765003E9714438547B397FF
:1010D000A70093C7F7FFF58F1CC38280B7170240A4
:1010E000DC433747FFEF7D17F98F1547630EE500A7
:1010F0006369A7000D476370A702371702405CC3FE
:1011000082801D47E31BE5FE3A053177798D5D8DC1
:10111000B707001011A03A05C98FC5B7B71602402E
:10112000DC42370740FF7D17F98F5D8DC8C2828092
:101130007971B705000822D441462A849385052891
:10114000080806D697600000E7800008B707030488
:101150009387172002C03EC202C43EC63717024022
:101160005C43894689838D8B6397D70E5C43939646
:10117000F70063D606065C579396F70063DC060417
:101180005C57585791832183BD8B3D8B9386170005
:101190000907C5476313F7005147B7177A009387CC
:1011A0000720B3D7D702B387E70237170240585753
:1011B0003D8B050733D7E702B7160240DC42D44225
:1011C000C98313962600BD8B6350060293E707017F
:1011D00085070DA0B7177A0093870720F9B7B717CF
:1011E0003D0013870790C9BFBD46E383D7FE89073B
:1011F000638DD704B387E702B7160240D8421010B8
:1012000011833D8B3297034507FFD84233D5A700A2
:1012100021831D8B3297034607FED84214102D837D
:101220001D8B36978546034787FE630CD40005CC9B
:1012300089476307F4028D473355E5006303F400E3
:101240000145B2502254456182809947B307F702A5
:101250000583BA9755B7B7177A009387072069BFF8
:101260003355C500F9BF3E85E9BF1C410D67130723
:101270000704D4417D8F9C41D58F9445D58FD445AB
:10128000D58F9449D58FD449D58F944DD58FD98F8B
:101290001CC15C4D7D771307F77FF98F5CCD828091
:1012A0001C4193E707041CC182804CC582804845DD
:1012B0004205418182801C410967D98F1CC10CC93C
:1012C000828008456D8D3335A00082804111B717AB
:1012D000004006C6138707C0630EE5086367A702D0
:1012E00037070040930607406304D50693870780BD
:1012F0006309F5066312E50A130500409700000034
:10130000E780C0DA1305004035A813870740630C57
:10131000E50637370140130707C0630DE500631D7D
:10132000F5061305404097000000E78020D813051C
:10133000404009A81305B03097000000E78000D7AF
:101340001305B030B240410117030000670083D796
:101350001305104097000000E78040D513051040AA
:10136000D5B71305204097000000E78020D413056F
:101370002040C9BF1305304097000000E78000D32C
:1013800013053040C1B71305504097000000E780B7
:10139000E0D1130550407DB7B24041018280C16762
:1013A000FD1723200500231205001CC52316050088
:1013B00023070500828083D7050003D74500937675
:1013C000F5BF1CD5B7370140938707C0418B630A2F
:1013D000F500FD779387F73FE98F3706004063906C
:1013E000C7061C4193F7F7F81CC183D725001041AD
:1013F00093F70706D18F1CC11C415D8F18C19C4516
:101400005CD5B71700406387F6021C4193F7F7CF0E
:101410001CC183D7C500184193F70730D98F1CC171
:10142000B7370140138707C06316E50003C7E5001F
:1014300023A8E7C25C4993E717005CC982801C417E
:10144000BD9B55BF1C4193E717001CC18280231030
:1014500005002311050023120500231305002314A2
:1014600005002315050082808547638EF50881C934
:1014700089476389F5128D476387F51C82801C516B
:10148000F99B1CD1185183570600D98F1CD11C51D0
:10149000F59B1CD1185183574600D98F1CD1B73703
:1014A0000140138707C0631CE50418516D9B18D1D8
:1014B000145103572600558F18D118515D9B18D130
:1014C000145103576600558F18D103A747C01377EF
:1014D000F7EF23A2E7C083A647C003578600558FC6
:1014E00023A2E7C003A747C01377F7DF23A2E7C013
:1014F00083A647C00357A600558F23A2E7C01C4D03
:10150000F19B1CCD82801C51BD9B1CD183570600D2
:1015100018519207D98F1CD11C5193F7F7FD1CD19C
:101520008357460018519207D98F1CD1B737014015
:10153000138707C06314E50618511377F7FB18D11A
:101540000357260014511207558F18D118511377DD
:10155000F7F718D10357660014511207558F18D1A9
:1015600003A747C01377F7BF23A2E7C0035786003E
:1015700083A647C00A07558F23A2E7C003A747C029
:10158000FD769386F67F758F23A2E7C00357A600EA
:1015900083A647C00A07558F23A2E7C01C4D93F7C7
:1015A000F7CF85B71C5193F7F7EF1CD1835706008F
:1015B0001851A207D98F1CD11C5193F7F7DF1CD10A
:1015C000835746001851A207D98F1CD1B737014065
:1015D000138707C06315E50618511377F7BF18D1B5
:1015E0000357260014512207558F18D11851FD7644
:1015F0009385F67F6D8F18D1035766000C51FD1649
:1016000022074D8F18D103A747C0F98E23A2D7C058
:101610000357860083A647C01207558F23A2E7C051
:1016200003A747C0F976FD16758F23A2E7C00357BD
:10163000A60083A647C01207558F23A2E7C05C4DC2
:10164000F19B5CCD82801C517D777D17F98F1CD179
:10165000835706001851B207D98F1CD11C517977D6
:101660007D17F98F1CD1835746001851B207D98FC7
:101670001CD1B7370140138707C06311E50203A7E8
:1016800047C0F176FD16758F23A2E7C00357860089
:1016900083A647C01A07558F23A2E7C05C4D93F776
:1016A000F7CF45B785476382F50281C989476386CD
:1016B000F5028D47638BF50282801C4D93F7F7F896
:1016C0001CCD1C4D5D8E10CD82801C4D65777D1725
:1016D000F98F1CCD1C4D2206F5B75C4D93F7F7F83A
:1016E0005CCD5C4D5D8E50CD82805C4D65777D1705
:1016F000F98F5CCD5C4D2206F5B78547638CF5000C
:1017000081C98947638AF5008D476389F500828026
:1017100050D9828010DD828050DD828030C182808D
:1017200085476381F50281C989476386F5028D4744
:10173000638AF50282801C4DDD9B1CCD1C4D5D8EA5
:1017400010CD82801C4D7D771307F77FF98F1CCD5C
:101750001C4D2206EDB75C4DDD9B5CCD5C4D5D8E76
:1017600050CD82805C4D7D771307F77FF98F5CCD7C
:101770005C4D2206EDB75C45DD8D4CC582805C4535
:1017800093C5F5FFFD8D4CC582805C4508496D8D84
:1017900009C533F5B7003335A000828093C5F5FF46
:1017A0000CC982804111B757004006C6138707C095
:1017B0006309E506636FA70037470040130707403A
:1017C000630FE502938707806304F504B24041018B
:1017D00082806301F506B747014093870780E317CE
:1017E000F5FE1305E03097000000E780208C13051C
:1017F000E030B2404101170300006700A38C1305DD
:10180000104197000000E780608A13051041D5B7AA
:101810001305204197000000E7804089130520410F
:10182000C9BF1305304197000000E78020881305E9
:101830003041C1B71305404197000000E7800087A1
:10184000130540417DB74111B757004022C426C25D
:1018500006C6138707C02A84AE84630FE500636F52
:10186000A70037470040130707406307E500938749
:10187000078001456312F402094519A8E30EF5FE3D
:10188000B74701409387078001456317F4000D4572
:1018900097000000E780008A93D71400AA97B3D777
:1018A0009702B2409244C207C1831CC42244410142
:1018B00082805C4593F7F79F5CC55C45DD8D4CC528
:1018C00082805C457D777D17F98F5CC55C45DD8D39
:1018D0004CC582801C4975777D17F98F1CC91C493E
:1018E000DD8D0CC982805C450967D98F5CC582801B
:1018F0005C45DD9BDD8D4CC582805C45ED9BDD8DBF
:101900004CC582805C4993F7F7EFDD8D4CC982802E
:101910005C4993F7F7DFDD8D4CC982805C4993F712
:10192000F7FBDD8D4CC982805C4993F7F7F7DD8DBD
:101930004CC98280B71702409843B706FFE0B10652
:101940001367170098C3D843758FD8C39843B70659
:10195000F7FEFD16758F98C39843B706FCFFFD167A
:10196000758F98C3D843B70601DFFD16758FD8C3AE
:1019700023A607029843B706F7EAFD16758F98C3AA
:101980003707FF0098C794434167D98E94C39307E4
:10199000F7FF3717024014431396E600634406002E
:1019A000FD17F5FBB717024098439316E70063C392
:1019B000060001A0D843B706C4DFFD16D8C3D8433C
:1019C000D8C3D84313670740D8C3D843758FD8C34B
:1019D000D843B7062920558FD8C3D857BD76758F01
:1019E000D8D7D857C166938616F1558FD8D7984364
:1019F000B7060004558F98C3B71702409843931653
:101A00004700E3DD06FE9843B7060010558F98C3E4
:101A1000B7170240984393162700E3DD06FE98436C
:101A2000B7060001558F98C3B71702409843931625
:101A30006700E3DD06FED843719BD8C3D843136724
:101A40002700D8C3371702405C43A18BF5DF8280A3
:101A5000371702405C4337060020854689838D8B0B
:101A60001306864E6386D70081C789466388D700F0
:101A7000B7177A00938707201CC282805C43939635
:101A8000F70063DB06065C579396F70063D1060602
:101A90005C5758579183BD8B2183938617009377AA
:101AA000F70013872700C5476313F7005147B7179F
:101AB0007A0093870720B3D7D702B387E702371797
:101AC000024058573D8B0507B3D7E702B7160240CF
:101AD000D842D4424983939526003D8B63D30502B7
:101AE0001367070105073307F70218C28280B7178B
:101AF0007A0093870720E1B7B7173D0093870790D7
:101B0000F1B7BD46E300D7FE0907E31ED7FC19472E
:101B10003387E7028583BA9785B77971B7050008DF
:101B200022D47D462A84938505290A8506D69750B6
:101B30000000E780606979468A85094597F0FF17BC
:101B4000E78040A0A285094597000000E780C00417
:101B5000B705000805469385052C094597F0FF1742
:101B6000E780409E01A0370700201307C74E1C43A3
:101B7000B7560020938686603E95636BD500B77696
:101B800000209386060063E5A60008C33E85828098
:101B9000FD57EDBF79714ECEAE89B70500080946F5
:101BA0009385052B22D426D24AD052CC56CA06D6CB
:101BB0002A89714497F0FF17E780C0983D4AA54AEB
:101BC000F154B3178A00B3F73701B3D7870093F7FF
:101BD000F70F63ECFA029387070393F7F70F0546B5
:101BE0009305F1004A857114A307F10097F0FF17E0
:101BF000E7804095E31794FCB25022549254025966
:101C0000F249624AD24A4561828093877703F1B7ED
:101C1000B70700D1D8438843CC43E39DE5FE8280DB
:101C2000B70700D223800700A38507001205B71766
:101C300000D23E9563E3A700828023A00700C1077E
:101C4000D5BFB71700D285070A053E958547230003
:101C5000F5008280B70700D203C5070005813D89E2
:101C60008280411122C426C206C62A84AE8497000F
:101C70000000E78060FE9147114763E3A7002A87D1
:101C8000371500D20A040D05229583470500937687
:101C9000F70FA145B397E70093F7F70F958DB3942E
:101CA000B400B3D7E740C58F93F7F70F2300F500D3
:101CB000B2402244924441018280011122CC2EC6BE
:101CC00006CE2A8497000000E78000F98D47814501
:101CD00063E9A702371700D20A040D07229783474A
:101CE0000700B245A1463385A6409205B3D7A74069
:101CF00093F5F50FB397A700CD8F93F7F70F230058
:101D0000F700F24062442E8505618280F32750304F
:101D100093F707FC93E73700739057308280B7053D
:101D20000008411115469385452B054506C697F0D9
:101D3000FF17E7802081054597000000E78020DE3F
:101D400041119347F5FF22C406C6139747012A8421
:101D500009E797000000E780C0FCB70500081546BA
:101D60009385C52B054597E0FF17E780A07D228569
:101D700097000000E780A0DA411106C69700000036
:101D8000E78080BB1305700597000000E78080E9BD
:101D900097000000E780C0F7B240410117E3FFFF62
:101DA0006700A34A828079711305005006D697F028
:101DB000FFFFE780202E81453705024097F0FFFFA7
:101DC000E7802009B72701409387C7443EC2130725
:101DD0000040B71700203AC89387075E214750009C
:101DE0003EC63ACA9307001009678145370502408D
:101DF0003EC43ACC231EF100230F010097F0FFFFF1
:101E0000E780600981453705024097F0FFFFE780D2
:101E1000401181453705024097F0FFFFE78020150C
:101E2000B2504561828039713ECCB707002083A74C
:101E3000075006DE16DC1ADA1ED82AD62ED432D285
:101E400036D03ACE42CA46C872C676C47AC27EC07E
:101E50008297F250E2525253C2533255A255125653
:101E600082567247E2475248C248324EA24E124F43
:101E7000824F21617300203039713ECCB7070020BA
:101E800083A7475006DE16DC1ADA1ED82AD62ED4CF
:101E900032D236D03ACE42CA46C872C676C47AC268
:101EA0007EC08297F250E2525253C2533255A2552D
:101EB000125682567247E2475248C248324EA24EEC
:101EC000124F824F21617300203083473500034752
:101ED0002500A207D98F03471500A2070345050077
:101EE000D98FA2075D8D828093D785002300B5002E
:101EF000A300F50093D70501E1812301F500A301BB
:101F0000B5008280AA872A968507850503C5F7FF55
:101F100003C7F5FF198D6383C7007DD582805849BB
:101F2000F915791763F9E5008357A5000855B387BC
:101F3000B7023E958280014582801C418DC33E8759
:101F4000930500021306A00305078346F7FF63F21B
:101F5000D502E39BC6FE938627006304D700FD5796
:101F600011A803C6070093060003FD576314D600AB
:101F700018C181473E85828001ED814725459CC17E
:101F8000828025458147F24062449CC10561828080
:101F90001C41011122CC06CE2A84E5D703C70700D5
:101FA0006DD38356450003D76700E39CE6FC03C569
:101FB00017002EC697200000E780009E0589B245D5
:101FC00069F11C40C9B781473387F5008346070094
:101FD0003307F50085072300D700E317F6FE82805C
:101FE00083C7B50103C7A501A207D98F0D47631A9F
:101FF000E50003C7550183C645012207558F4207F7
:10200000D98F3E858280411122C426C24AC006C6AD
:102010001309050350552A84034515008546CA85D2
:1020200097200000E780A0A285440DE950541C5081
:10203000184CA3010400B307F640AA8463F0E7023A
:10204000834624008947639BF600034514008546B8
:102050003A96CA8597200000E780609FB2402244EC
:10206000268502499244410182805C556384B7040D
:10207000411122C426C206C6834735002A84AE8495
:1020800085E30345140085462686930504039720BF
:102090000000E780A09119C10545FD5444D431A04A
:1020A00097000000E78060F669DDB2402244924468
:1020B0004101828001458280411122C406C6FD573C
:1020C0005CD5A30105002A8497000000E78020FA70
:1020D00091473DE50347F4228347E422ED7622074A
:1020E0005D8F42074187938656A58D47631AD704B3
:1020F000834704031307B00E6389E700E10713F772
:10210000F70F8546894763EDE602B70500080D46DF
:102110009385452C1305640697000000E780C0DE18
:10212000814719CDB705000815469385852C130501
:10213000240897000000E78020DDB337A000860761
:10214000B24022443E854101828039714AD806DE80
:1021500022DC26DA4ED652D456D25AD023A005001D
:1021600032892EC697000000E78060DDAD476342EC
:102170000504370700209317250013078750BA97E7
:102180008043AA84B14715C4B2451379E90F80C1D1
:102190008347040095CB0345140097100000E780A7
:1021A000A07F937715008DE363050900118911C1A4
:1021B000A947F2506254D2544259B259225A925A03
:1021C000025B3E852161828013F5F40F2300040039
:1021D000A300A40097100000E78040541377150077
:1021E0008D4761FB63040900118979F181452285DE
:1021F00097000000E78080EC8947631FF50404081E
:102200001309641F130A6423A6898347C9FF014584
:1022100091C74A8597000000E78060CB23A0A90002
:1022200041099109E3132AFF13890401854903AA8F
:1022300004000D45630A0A00D2852285970000003C
:10224000E780C0E763F3A9029104E31299FE114706
:102250008547631AE500B1BF11478547E30BE5F4F5
:10226000014A63F4A700B547A9B78347C4030347EE
:10227000B403A207D98FC207C18713070020E394D4
:10228000E7FE8349740483476404A209B3E9F900B3
:10229000639909001305440597000000E78020C3F7
:1022A000AA8983440404232C340105479387F4FF4F
:1022B0002301940093F7F70FE367F7FA0349D40378
:1022C00093170901C1832315F400D1DF9307F9FFA8
:1022D000B3F72701C9FB83472404834A1404A207E8
:1022E000B3E75701939A070193DA0A41139B0A0156
:1022F000135B0B01231464019377FB00ADF70345D7
:1023000044048347340422055D8D19E51305040553
:1023100097000000E780A0BB8347F4030347E40372
:10232000A207D98FA9D3B386340313574B003E9726
:102330003697E36AE5F2198DB3542503E36525F377
:10234000370600105516E36096F24166551663791C
:1023500096120D4952978904D29718D444C8232E57
:1023600044011CD00D47631EE90E8347B4050347A3
:10237000A405A207D98FB3E7FA00C207C187E39487
:1023800007EE1305C40597000000E78040B448D06D
:102390008A049384F41FA580E3E799ECFD571CC8D9
:1023A0005CC4930700F82302F4008D47631AF90810
:1023B0008347140603470406A207D98FC207C187C3
:1023C0000547639FE70693051A00228597000000E2
:1023D000E780E0C935E58347F4220347E42223027E
:1023E0000400A207D98FC2076D77C187130757A5CD
:1023F0006398E7041305040397000000E78020AD0D
:10240000B757614193872725631CF50213054421C3
:1024100097000000E780A0ABB7774161938727273B
:102420006310F5021305842197000000E78020AABD
:1024300008C81305C42197000000E78040A948C4DC
:10244000370700201307C7508357070023002401D4
:102450008507C207C1832310F7002313F4008147C7
:1024600089BBE3020BE0B6975CD089476314F9009F
:10247000860405B73387E40285880583BA9411BFC3
:1024800005695519333999000509E9B501114EC699
:1024900052C406CE22CC26CA4AC856C25AC0054AE1
:1024A00089496374BA0A5C492A89894963FFF50836
:1024B000834705000947B2842E84638AE70A0D47E3
:1024C0006380E70E6393470913DA15001C512E9AB7
:1024D00093559A00BE9597000000E78040B9AA89FD
:1024E0002DE5930A0903130B1A000588137AFA1FC6
:1024F000569A93F7F40F09CC83470A008566C116F4
:1025000013F7F70093974400F58FD98F93F7F70FE0
:102510002300FA008547A301F90083270902935598
:102520009B004A85BE9597000000E78040B4AA89C9
:1025300009ED137BFB1FDA9A05C4918093F4F40F25
:1025400023809A008547A301F900F24062444E853A
:10255000D2444249B249224A924A024B05618280E2
:1025600083C70A00A180BD88C19BDD8CD1BF1C51EF
:10257000A181BE9597000000E78060AFAA8971F540
:102580000604930709031374E41F3E942300940088
:10259000C204C180A180A3009400A301490175B7C2
:1025A0001C519D81BE9597000000E78040ACAA8930
:1025B00049FD0A04930709031374C41F3E9422853E
:1025C00097000000E780A0909204B70500F091808A
:1025D000E98DC58D228597000000E780209175BFA9
:1025E000854763F7B70E5849011122CC06CE26CA9B
:1025F0004AC84EC62A8463FAE502034705008946A5
:10260000AE84630CD7068D46630ED708631FF700B0
:1026100013D915001C512E9993559900BE9597001A
:102620000000E780C0A411C9FD57F2406244D244C3
:102630004249B2493E85056182801C5093091900C8
:1026400093D599001379F91F2299BE9522850349E4
:10265000090397000000E78080A179F593F9F91F3D
:102660004E94834704038588A207B3E7270199C0E6
:10267000918365BFD207D1834DBF1C51A181BE9507
:1026800097000000E780A09E45F186041304040330
:1026900093F4E41F26948347140003470400A20721
:1026A000D98F61B71C519D81BE9597000000E780CE
:1026B000009C3DF913952400130404031375C51FF2
:1026C000229597000000E7808080931745004DB762
:1026D00085473E858280011126CA4EC652C406CE69
:1026E00022CC4AC856C25AC02A8AAE89044191E90E
:1026F00003A9C40063050900DC486360F9040549C7
:102700002DA8268597000000E780C0ED85472A8424
:1027100063EEA70005442285F2406244D244424958
:10272000B249224A924A024B05618280FD576303F7
:10273000F50CDC484E89E360F5FE9C4899E30144C2
:10274000D9BF631D3903DC48130419006363F40027
:10275000094403250A00A28597000000E78080E86D
:102760000547E309E5FAFD576306F50829C1DC448E
:102770006376F700D84863F3E7003E894A84854AC8
:102780007D5BDC4805046365F400E3FA2AFB094439
:1027900003250A00A28597000000E780A0E409C98C
:1027A000E30A55F763086505E31D24FD49BF79D4A5
:1027B0007D56A285268597000000E78060CD05E95B
:1027C000639F0900D8489C48C0C479176376F70214
:1027D00083C7440093E717002382F4002DBF2286AD
:1027E000CE85268597000000E78080CA61DD854799
:1027F000E312F5F27D5405B7FD179CC8D1BF79717E
:1028000052CC032A050122D406D626D24AD04ECE77
:1028100056CA5AC85EC6130A0A02B707200000410A
:102820006364FA00232C0500184D914705C7137BFC
:10283000FA1FAE8AAA84631D0B0C4C49050718CDFC
:1028400095E50357840093575A0063E3E70C23ACE4
:1028500004009147B250225492540259F249624AFC
:10286000D24A424BB24B3E85456182808359A400D7
:1028700093579A00FD19B3F9F900639B0908228563
:1028800097000000E78000D6854B2A8963E4AB00FF
:102890008947C9B7FD576314F500854765BF5C4894
:1028A000636FF504E3850AFACC482685970000009B
:1028B000E780A0E22A899D4751DDE30B75FDFD57B6
:1028C000E30DF5FC83473400A1EFCA85228597F01C
:1028D000FFFFE7800065930A0403AA8B48D413071F
:1028E0000423D6878507A38F07FEE39DE7FE835762
:1028F000A40063EEF9028357A400E390F9FA23AA37
:102900002401CA85228597F0FFFFE780806188CC8B
:10291000130404035A9423A84401C0CC81471DBF6B
:10292000228597F0FFFFE780406E25F979BF0345C8
:102930001400854633863B01D68597100000E7805A
:10294000001155F9850965B701114AC803298500A9
:1029500022CC26CA06CE4EC652C423280500AA841D
:1029600000416311090403470400894763F4E70049
:102970005C5085EB8357840091EB0945F24062443B
:10298000D2444249B249224A056182805C509CCCC3
:102990009C4C23AA2401F5D313040403C0CC0145A5
:1029A000F1BF3E898357A400FD59054A85E388405D
:1029B000CA8597000000E780E0C22A8963003503DA
:1029C000E37DAAFA5C48E364F5FE45BFCA8522852B
:1029D00097F0FFFFE780E05488CC5DBF054579BFE5
:1029E00079712AC6680806D62EC432C22ECE97F058
:1029F000FFFFE780C05463410504B7070020138739
:102A000087500A052A97184393878750124619C39F
:102A100023000700324719C323000700AA9798C371
:102A2000014501CA01466C00280097F0FFFFE780CE
:102A30000072B250456182802D45E5BF1971D2D434
:102A400086DEA2DCA6DACAD8CED6D6D2DAD0DECEE0
:102A5000E2CCE6CAEAC8EEC62EC6254A630A054A93
:102A60009379F6033289AA844E860C08680097F0A1
:102A7000FFFFE780C06D2A8A2A84631B0530C24AA3
:102A8000324D9306F00256CA1307C00583470D0066
:102A9000638DD70E638BE70E02CE03470D00FD4713
:102AA00063F7E70E130CF101130B0002930BF00216
:102AB000B70C00085C08238067038507E31DFCFE54
:102AC00001470146A1451305C0051308E002AD48C2
:102AD0001303D007654E930EF003130FE007B307FF
:102AE000CD0083C70700930616006370FB02638462
:102AF00077016397A71A9305C0053306DD000346E7
:102B00000600630D7619630BB618369D630E071821
:102B1000834641031307500E6395E6001547230AC9
:102B2000E10211476373FB0001474808A30FE1026C
:102B3000D24D97000000E78060E12A846316051EED
:102B4000B2556E8597F0FFFFE78060522A84631DBF
:102B5000051C4255834705006387071C8347B50062
:102B600013F7F703230DE100A18B89EB2D464C18D9
:102B700097F0FFFFE78040396308051A8145480850
:102B800097000000E780E0C74DBF050D01B7930730
:102B900000F84808A30FF10297000000E78000DB6F
:102BA0002A846302051C9377C9016385072863059E
:102BB000041E9147631EF41C480852499700000008
:102BC000E780C0D82A846311051C930A500EB255C1
:102BD0004A8597F0FFFFE78080492A846316051A2B
:102BE000C25783C7070063965719B2554A8597F0B5
:102BF000FFFFE780C0472A84631C0518C25713876C
:102C000007028507A38F07FEE31DF7FE42552D46F9
:102C10004C1897F0FFFFE780403B8547A301F90080
:102C200093E98900C247425403C50700A28597F083
:102C3000FFFFE780203B2A8997000000E7800073B0
:102C4000AA851305E40097F0FFFFE780202AC2570A
:102C5000130700028D46A385E700C2574247238D24
:102C60000700A38D0700034607006316D600238ADA
:102C70000700A38A0700C257238E0700A38E070010
:102C8000238F0700A38F07008547A301F700630088
:102C9000091CD24A63EF27110944DDA88506B1BD9E
:102CA000638C072B6364B7001944F5BD938FF70756
:102CB00093FFFF0F6367F305EA9683CF06000906CB
:102CC000E3F4FEFF93F6FF07E360DFFE9386F5FF74
:102CD000E37CD7FC800093061700B302E400238A4C
:102CE000F2FEB687A2970907238AF7FFB2863686D7
:102CF000FDB30506834F060063880F00E39BF7FFD3
:102D000065B713860C2DFDB71386F7F91376F60F0A
:102D10006365CE00811793F7F70F90003A96230A68
:102D2000F6FE0507E9B711448347F10309C81147C7
:102D3000E31BE4E6918BE39807E61544ADB5918B70
:102D40009DE38347A101C18BEDDB925703C50A00C8
:102D500093850A0393F7F71FBE9597F0FFFFE7806F
:102D600060282ACE81BB8307F1030144E3DD07E23B
:102D700025BFE38C07E68545480897000000E780FB
:102D800040A82A84E30505E491476313F4001D4439
:102D900023A00400228AADAA8347A101C58BE5FBCD
:102DA000937749006396071A137989006301090A2A
:102DB00095BD83A74A01E371F9EE832BC7024A84CC
:102DC000054CFD5C5245A28597000000E78080819C
:102DD0002A8B21C5E30285ED6314950105444DBF9F
:102DE000A2850146568597F0FFFFE780606A2A8436
:102DF00045F103A74A0183A70A019306E7FF63FB96
:102E0000D700850723A8FA0083C74A0093E7170075
:102E10002382FA005A84E367EBFA4245DE857D1986
:102E200097F0FFFFE780A024C2472A8423A627014A
:102E300019CDB9BF31FC8347A10113F70701631B0B
:102E400007101379290063040900858BA9F393F710
:102E5000890099C393E9090442444259938A840240
:102E60005C5423A22403CA859CD00345040097F038
:102E7000FFFFE780201788C41305C90197F0FFFF03
:102E8000E780E00483576400C8C480C02392F40044
:102E900023883401A388040023AE040023AA04007D
:102EA00013878422D6878507A38F07FEE39DE7FE5D
:102EB00093F90902638E090403A9C400630A090493
:102EC0000354A4008C4423AA2401260485497D5B75
:102ED0006360240701448CCCE31C04EA9377F91F58
:102EE00085CB4244228597F0FFFFE7808003E3050E
:102EF00005DA135999003306A900D0CC0345140014
:102F00008546D68597100000E78040AAE31805ECB7
:102F1000F65066545285D6544659B659265A965A92
:102F2000065BF64B664CD64C464DB64D0961828029
:102F300088403309894097F0FFFFE780A06AAA859F
:102F400063F6A900E31665F9054471B7094461B752
:102F500021443DBD11442DBDE38815D52147AD4524
:102F600079B31D71A2CCCAC8CEC6D2C4DAC086CE8F
:102F7000A6CAD6C25EDE62DC66DA6AD86ED62E8A51
:102F800023A006006C082A843289368B97F0FFFF55
:102F9000E780C0FEAA8939E58349140163940904D6
:102FA00083470401898B6380071C5C4833872701B2
:102FB0006374F70013C9F7FF930B0020930A840290
:102FC000130CF01FFD5C39A20C4C228597F0FFFF1B
:102FD000E780A070631605128347040193E7070496
:102FE0002308F400F64066444E85D6444649B64967
:102FF000264A964A064BF25B625CD25C425DB25D49
:1030000025618280631795018547A308F4008549EF
:10301000D1BF1C4408CC91E308C48307040163D3E7
:103020000702F247504C854603C51700D685971016
:103030000000E780C0A169F98347040193F7F7070F
:103040002308F400F2470C4C3E853EC697F0FFFF84
:10305000E78020ED4DC9338DAD00B247637A2C0B6C
:1030600003D7A70093549900B3869D006374D700DB
:10307000B304B74103C51700A6866A86D2859710A8
:103080000000E780C09C49F14C4C338DA541637230
:103090009D02260D13060020B305AA01568597F060
:1030A000FFFFE78080F28347040193F7F7072308C7
:1030B000F400A60483270B0033099940269AA697AB
:1030C0002320FB005C48BE945C4444C863F3970033
:1030D000A6875CC4E30209F05C4813F7F71F29EFE9
:1030E0007247835DA70013D79700FD1DB3FDED0068
:1030F000E3950DF2E39A07EC08448145E30705ECFC
:103100008547E311F5F08947A308F4008949D9BD43
:10311000584C6301A70354445848637DD70003C546
:10312000170085466A86D68597100000E7800088DC
:10313000E31C05EC232EA4014848CA841375F51F2F
:10314000B387AB4063F32701BE842686D2855695AC
:1031500097F0FFFFE78060E78347040193E707F8F4
:103160002308F40081BF9D49B5BD01116C0026CA3A
:1031700006CE22CC4AC8AA8497F0FFFFE78000E081
:10318000AA876315051803C7040193760704638FA4
:1031900006166207618763560702B247D04C854620
:1031A00003C517009385840297100000E780208AEA
:1031B0008547631D051483C7040193F7F707238828
:1031C000F40097000000E780601A2A898C5032458D
:1031D00097F0FFFFE780A0E9AA8763190512C050A6
:1031E0008347B40093E70702A305F4009C4494408E
:1031F0001397070141832183A30DE400230DF400FD
:1032000083C606000D476398E600C183230AF400D5
:10321000A183A30AF400CC441305C40197F0FFFF77
:10322000E780C0CCCA851305640197F0FFFFE780F3
:10323000E0CB23090400A309040032440549A3019B
:103240002401228597F0FFFFE78020DCAA874DE963
:10325000034704008D47631BF708834744006397C7
:1032600027091309040313070423CA878507A38FBB
:1032700007FEE39DE7FE930750052307F42293071B
:10328000A0FAA307F4220C489307200513071004A3
:10329000930620072308F402A308F40293071006FC
:1032A0002309F402A309E402230AD420A30AD420A8
:1032B000230BE420A30BF4201305842197F0FFFFD8
:1032C000E780C0C24C441305C42197F0FFFFE7809C
:1032D000E0C1504C034514008546050650D4CA850C
:1032E00097000000E780A076230204000345140045
:1032F0000146814597100000E780E085B337A000C4
:1033000003C704011377F7FB2388E400F24062440B
:10331000D24442493E8505618280011122CC06CE0D
:103320002A8497000000E78080E411E96C00228580
:1033300097F0FFFFE78080C419E123200400F240EA
:10334000624405618280370800201308084F23106B
:10335000A8002301B800A301C8002302D800A302DB
:10336000E8002303F8008280370700201307074F87
:103370008347270003453700D6074205C98F034519
:103380006700C98F034547002E05C98F03455700C5
:103390001605C98F034507001305450466055D8DB5
:1033A0008280411122C43744004026C24AC006C66A
:1033B000AA841309048089454A8597E0FFFFE780C6
:1033C00080F075D9A685130504803744004097E046
:1033D000FFFFE780C0ED930404808545268597E0D4
:1033E000FFFFE78040EE75D91305048097E0FFFFEB
:1033F000E78020ECB2402244924402491375F50F55
:1034000041018280411137150140916506C697E060
:10341000FFFFE78000C7B2401305F00F410117031B
:103420000000670043F8397126DA5AD05ECE62CCCC
:1034300066CA6AC806DE22DC4AD84ED652D456D2B4
:10344000AA8497E0FFFFE780E07CB707000803ABA2
:10345000072E83AB472EAA8C2E8D370C002097E0C9
:10346000FFFFE780207B3309954133352501B38584
:10347000A541898D1305F00F2EC697000000E78047
:1034800080F29307F00F2A84630FF504B2454A8552
:1034900097400000E78060A52A8903258C4EAE89FD
:1034A00097400000E780009F5A86DE869730000034
:1034B000E780A0F42A8A2685AE8A97400000E7803C
:1034C000609D2A86AE865285D68597300000E780BB
:1034D00060512A86AE864A85CE8597300000E78007
:1034E0002046E34E05F6130514F0F2506254D25410
:1034F0004259B259225A925A025BF24B624CD24C58
:10350000424D1335150021618280011191653715F7
:10351000014006CE97E0FFFFE780E0B61305F00F0D
:1035200097000000E78020E81305401F9700000087
:10353000E780A0EF2AC609E997000000E780C0EC09
:103540003245F240056182800545E5BF4111931780
:10355000850122C426C206C6E1872A84AE8463DFC1
:10356000070081451305700397000000E78040FEC7
:103570000547AA87636CA70A1374F407B147631C55
:10358000F4081365040497000000E780C0E113D538
:10359000840197000000E78000E113D50401137552
:1035A000F50F97000000E78000E013D58400137545
:1035B000F50F97000000E78000DF13F5F40F970088
:1035C0000000E78040DE1305500919C4A1470545F6
:1035D0006314F4001305700897000000E780A0DC76
:1035E000B1476318F4001305F00F97000000E7805F
:1035F00080DB29441305F00F97000000E780A0DA74
:10360000131785016187AA87635207027D1413741B
:10361000F40F6DF021A897000000E780E0DE97002E
:103620000000E780C0EE9307F00F21FDB240224476
:1036300092443E8541018280411122C42A841305AF
:10364000800C26C206C6AE8497000000E780807218
:103650001305F00F97000000E780E0D49307F00F08
:10366000631DF50097000000E780607675F1014565
:10367000B24022449244410182809307E00FE31854
:10368000F5FE8504A2941305F00F97000000E78073
:1036900080D12300A4000504E39784FE1305F00FF6
:1036A00097000000E78020D01305F00F970000007E
:1036B000E78060CF05456DBF411122C426C24AC0D4
:1036C00006C62A89014493040020B307890003C574
:1036D0000700050497000000E780E0CCE31794FEA4
:1036E0001305F00F97000000E780E0CB1305F00F03
:1036F00097000000E78020CB1305F00F9700000033
:10370000E78060CAB24022447D896D159244024927
:103710001335150041018280631C0526797113055C
:10372000306006D622D426D24AD097E0FFFFE78049
:1037300060961305406097E0FFFFE780A0951305B2
:10374000E07097E0FFFFE780E09437140140130535
:1037500004C0A9660D46E14597E0FFFFE780208899
:10376000130504C091660D46914597E0FFFFE78081
:10377000008791660D46C1453715014097E0FFFF70
:10378000E780E08591653715014097E0FFFFE7800E
:10379000408F930740103EC28D47B74400403ECC57
:1037A000930700203EC84C009307800213850480D5
:1037B0003ECE02C402C602CA97E0FFFFE78020ABFC
:1037C0009D451385048097E0FFFFE78000AF1385D8
:1037D000048097E0FFFFE780E0AC294597000000F8
:1037E000E780C062370400201307844F8347070037
:1037F0001304844F898B99CB03450700B2502254A0
:10380000925402591375F50F4561828083A7048095
:1038100091653715014093F777FC93E7870223A062
:10382000F48097E0FFFFE7800086A944FD141305AC
:10383000F00F93F4F40F97000000E780C0B6FDF49A
:103840008145014597000000E78080D085472A899F
:10385000631EF5121305803E97000000E78080513B
:103860009305A01A214597000000E78060CE6319F8
:10387000250D11491305F00F97000000E780A0B255
:103880005C00A6972380A7008504E39524FF0347E7
:1038900061008547631CF70E034771009307A00A78
:1038A0006316F70E97000000E780605211C9B70554
:1038B00000401305900A97000000E78060C97DF181
:1038C00097000000E780A05071C181451305A00357
:1038D00097000000E780C0C755E9814411491305EE
:1038E000F00F97000000E78000AC5C00A6972380F3
:1038F000A7008504E39524FF83474100B14493F773
:10390000070491E39144B70700202387975097005D
:103910000000E78060AF854799CC37470040832798
:10392000078093F777FC93E787022320F78083478C
:10393000040093F7E70F2300F400034504007DBD66
:1039400081451305900A97000000E78060C0854418
:103950006365A90089441309900A97000000E78075
:10396000004701C981454A8597000000E78040BEB5
:103970006DF597000000E780804509C99305002098
:10398000414597000000E780A0BC35DD8144A5BF1C
:103990000545828001E9B707002003C5874F1375ED
:1039A000F50F82800545828059ED411122C406C67B
:1039B00026C236841145B1CAB707002083C7874F96
:1039C0000D45858BB9E3B707002083C7E750AE8468
:1039D000B285A18B99E3931596008547631CF40289
:1039E000454597000000E780A0B611E99305002047
:1039F000268597000000E78060C413341500970007
:103A00000000E78060A033358000B2402244924439
:103A100041018280494597000000E78060B365F16D
:103A200093050020268597000000E78020C109C586
:103A30007D14938404206DF4814531459700000086
:103A4000E78000B16DBF114582806312051001113E
:103A500022CC06CE26CA36841145A9CAB707002053
:103A60009387874F03C707000D45058B21E383C765
:103A700007000945918B9DEBB707002083C7E750EE
:103A8000AE8413F7870011E326060547631AE404A2
:103A9000B285614597000000E78080AB09CD054401
:103AA00097000000E780409633358000F240624482
:103AB000D244056182801305401F97000000E78013
:103AC000C09671DD1305E00F97000000E780A08D20
:103AD000268597000000E78060BE13341500C9B743
:103AE000998B91CBA2851305700932C6970000000F
:103AF000E78000A63246B285654597000000E78062
:103B000020A559FD1305401F97000000E780E091B4
:103B10000DC11305C00F97000000E780C0882685FF
:103B200097000000E78080B909C57D1493840420C4
:103B300071F81305401F97000000E780008F25D122
:103B40001305D00F97000000E780E08591BF114575
:103B50008280011126CA06CE22CC91440DE9B70716
:103B6000002083C7874F8D44858B95E3854732843A
:103B7000AE84638BF50295C18D476388F50A914742
:103B80006383F516914497000000E780E087F240D8
:103B900062442685D2440561828097000000E78058
:103BA000009793341500C5B781452545970000005F
:103BB000E780009A19C18544F9B7C1450A85970085
:103BC0000000E780A0A765D9034601008347810074
:103BD00083469100198203477100631E9600A20775
:103BE000B6974207B7063F00758F0507BA97AA0731
:103BF0001CC0814449BF0A079983BA9703476100F3
:103C00000566130606C02A07718FBA970346A100FE
:103C10000347510086061D823D8B3297998A36975D
:103C200085076517B397E700E1B7B70400209384D1
:103C3000E45083C704008145918BB1CB1305D008B4
:103C400097000000E780C0903DF51305F00F97F056
:103C5000FFFFE7804075C1450A8597000000E780B7
:103C6000E09D31D993040003FD141305F00F93F484
:103C7000F40F97F0FFFFE7800073FDF48347A10086
:103C800013D74700C147B397E7001CC0EDBD2545DA
:103C900097000000E780C08B19FDC1450A85970099
:103CA0000000E780A09901D903C704008347A10061
:103CB0008346B100098B01CF0347D100860793F7F4
:103CC000E7079D82B697198385077D17A1BF1397D4
:103CD0003600618B958289873697FD8B05078507AE
:103CE000B307F70231B7B70400209384E45083C7C9
:103CF0000400998BE38107EC0A86AD45970000002C
:103D0000E78060E5E31905EA834701000347A10066
:103D1000998313770704D98FE38F07E883C70400DB
:103D20000C404040A18B99E3A60526041305000230
:103D300097000000E780C081E31F05E6A285130518
:103D4000100297000000E780A080E31605E6814599
:103D50001305600297F0FFFFE780807FE31D05E415
:103D60001D651305055397F0FFFFE780006C15BD37
:103D7000411122C406C62A8497E0FFFFE78080E94C
:103D8000B70700209387075188C3CCC303A8070057
:103D900083A84700B707002003A5874E8567938750
:103DA00007FA3355F502B7060020B2403305850205
:103DB0002244330605013335A60023ACC650B307B1
:103DC000150123AEF65041018280411106C697E0ED
:103DD000FFFFE78020E4B70700209387075188C3DF
:103DE000CCC3B70600209843DC4303A6865183A6C4
:103DF000C65163E7F60005456395D7006373E60097
:103E00000145B2404101828079714AD04ECE5AC8F4
:103E100006D622D426D252CC56CA5EC662C466C228
:103E20002A8B97E0FFFFE780E0DEAA892E8997E0E2
:103E3000FFFFE78020DEAA842E846394A900E308B4
:103E4000B9FEB707000803A9072E83A9472EB70BB1
:103E5000002097E0FFFFE780E0DBAA87058DB3B77E
:103E6000A700818D9D8D97300000E78000082A8A89
:103E700003A58B4EAE8A97300000E780A0014A86EA
:103E8000CE8697200000E78040572A8C5A85AE8C5A
:103E900097300000E78000002A86AE866285E685BE
:103EA00097300000E78000B42A86AE865285D6851A
:103EB00097300000E780C0A8E34D05F8B2502254C7
:103EC00092540259F249624AD24A424BB24B224CB6
:103ED000924C4561828071060A062A968D06898277
:103EE00050468A06AE966394B6000145828003C7A9
:103EF000150083C70500910522075D8F83C7E5FF85
:103F0000C2075D8F83C7F5FFE207D98F1CC2E1BFEF
:103F10000D060982785D0A062E966394C5002E85EB
:103F200082801C43910593D68700238EF5FEA38ED5
:103F3000D5FE93D60701E183238FD5FEA38FF5FE2F
:103F4000E9BF184141119A0506C693E505020CCB5D
:103F50001C4B93F70702EDFF0D4597100000E7801B
:103F60008092B2400145410182805C4592059843B0
:103F70001377F78098C39843D98D8CC3828098417A
:103F800083870500411102C63D8B63D9070693174D
:103F90002700AA97DC4B8546B396E60036C69443C5
:103FA000504513950601634405049443370534FCDA
:103FB00013050580E98E94C329EF144603A8070072
:103FC00013F56600B78600089386C6DCAA9683C6FA
:103FD0000600B3E6060194C383C6150088435A075A
:103FE000CA06558F498FB7860010558F98C3324740
:103FF0005C4E0145D98F5CCE4101828093078700DA
:104000008A07AA97130607018546DC47B396C600C0
:1040100071B7884383D64500C98E75BF90410111A1
:10402000B70600E03D8A93172600AA97D84B06CE24
:104030001C433EC41C4B3EC6B247F58F3EC6DC4512
:10404000A5E7B247B7060800D58F3EC6B2471CCBDE
:104050008346450085476394F6009C4D5CCB03C8BE
:1040600015008547631CF8005C459C4793F70710D3
:10407000B5CFA247B7060020D58F3EC4A247B706EA
:104080000084D58F3EC4A247D4451CC38547630333
:10409000F80699C658453396C700545B558E50DBD9
:1040A000F24001450561828083D645001DE663F339
:1040B000F600B687DCC5B247B7060800D58F3EC606
:1040C000B247D445D58F83C615003EC68547E39FCA
:1040D000F6F6B247B706006085BFFD17B697B3D7AF
:1040E000D7023248CE07B3E70701D1BFA247B706D0
:1040F000001059B78C45C206C18221059700000007
:10410000E780A0DD71BF9841D4453D8B93078700C0
:104110008A07AA9783A8C700B70700E003A608008C
:1041200003A808013378F80083D7450091C239E32A
:104130003368F800B7070800B3E7070123A8F800C1
:104140000347450085476315F7009C4D23AAF800F7
:1041500003C7150085476318F70083C735009DC75F
:10416000B70700205D8EB70700845D8E23A0C800CE
:10417000014582801387F6FF3E973357F702931667
:10418000370133E80601B307F7027DB7B707001020
:10419000D1BF9C4103870500BD8B635407028A078A
:1041A000AA97DC4B9843635707009843B706004033
:1041B000558F98C39843B70620000145558F98C383
:1041C0008280A1078A07AA97DC47EDB79C41038745
:1041D0000500BD8B635A07028A07AA97DC4B9843F8
:1041E000B706E0FFFD16758F98C303C71500854617
:1041F00079171377F70F63E7E6009843B7060010C7
:10420000558F98C301458280A1078A07AA97DC478A
:10421000F9B75C45884FDC4F7D8D41811375F503FF
:104220008280A1058A05AA95DC4598475C45C84B64
:10423000798D82805C45884FDC4F7D8D1375F50349
:1042400082805845144B5C5B139725003A9558497A
:10425000B3D7B7009E07084793F7F70FD58F7D8D2B
:1042600082805C5537070860610798CB834645001C
:104270000547639AE60013054542C8CB9843B786C5
:104280000080558F98C382808347750091CB5C4531
:104290009C47858B91C70327050C1C43F19B1CC3CE
:1042A00082801C45D84B058B631C0712411126C226
:1042B000C44B9C4F06C622C44AC0FD8C638C0410BC
:1042C0009397C4002A8463D6070097000000E78014
:1042D00080119397D40063D70700228597000000D0
:1042E000E780402085679387078033F7F40019C380
:1042F00018445CCB63DC04008347740C37070080F0
:1043000093F7F70F2303F40C1C44D8CB93F7240046
:1043100081C71C440947D8CB93F78400B1C78327D2
:1043200004439C4F99C322858297370900201309C3
:1043300009528347090093F7F70F85C783470900A0
:104340000947850793F7F70F2300F9008347090012
:104350006379F700228597100000E78020E62300AC
:1043600009001C442147D8CB93F7040191C722854B
:1043700097000000E780C0229397340163D70700BD
:10438000228597000000E780002E9397240163D7D1
:104390000700228597000000E780003A9397B40059
:1043A00063DC070083270443DC4F99C3228582978F
:1043B0001C4437071000D8CB9397A40063DC070098
:1043C000832704439C5399C3228582971C44370753
:1043D0002000D8CBB240224492440249410182805D
:1043E0008280397122DC26DA4AD84ED652D456D28F
:1043F0005AD05ECE62CC06DE66CA2A84370A08002E
:1044000097000000E78020E12A898144B70A002054
:10441000214B8549994B614C7D1A63100902F2507A
:104420006254D2544259B259225A925A025BF24B08
:10443000624CD24C05452161828093771900C9CF27
:1044400093FCF40FE685228597000000E780A0DD4D
:104450002AC4A247858BA1CF93972400A297D8574F
:104460002324370183464400639F3601184B3AC624
:1044700033878403B246B3F64601BA9703D70727BA
:10448000158F23AEE726E685228597100000E7808A
:1044900020DC83474400639C370191E88347C44292
:1044A00063977701228597000000E780C0DBA24771
:1044B000A18B9DC395E0938C0A5283C70C0093F7A0
:1044C000F70F99CB228597100000E78020CF5C542E
:1044D00023800C0023A4670113591900850435BFFC
:1044E000797122D426D24AD04ECE52CC56CA06D6A4
:1044F0005AC82A8497000000E78000D42A898144A2
:10450000130A00088549954A631D0900B2502254D8
:1045100092540259F249624AD24A424B05454561DA
:10452000828093771900BDC713FBF40FDA852285CB
:1045300097000000E78020D12AC6B247858B9DCB2B
:1045400093972400A297DC4BDA85228523A43701B8
:1045500097100000E78020DE83474400639C37010A
:1045600091E88347C4426397570122859700000072
:10457000E78060CFB24793F7070889CFA6852285E9
:1045800097000000E780C02193972400A297DC4B9E
:1045900023A44701135919008504BDB71C45011117
:1045A00002C6984F22CC26CA4AC83D9B06CE98CF59
:1045B0009C5389462A893EC63244B2443247B247A8
:1045C00091803D88C583BD8B93F4F47F6382D702CD
:1045D00099466387D70403278900F24062441C4F41
:1045E000D244424993E707011CCF0545056182800B
:1045F000FDD0F1473304F40226862A94832544270C
:10460000210597000000E780E09083274427A697C4
:10461000232AF4268327C427BE94232E942665BF1D
:10462000F1473304F4023D830D8B2A948347C4265B
:10463000BD8BD98FCDF3A147E39FF4F89305454295
:104640002146210597000000E780C08C8327C427FE
:104650000547A107232EF426B70700202380E75241
:104660009DBF5845411122C45C4306C626C2F99B32
:104670004AC02A845CC38145210597000000E78079
:10468000808C034634009307440101479306F00FE2
:10469000636BC7085C447D57854498CF4167050725
:1046A000D8CF2547D8CB84CB984322851309000463
:1046B0001377F78098C3A302040C97000000E780EB
:1046C00080BA1C4405677146D8CB9307C4263E8543
:1046D000814597300000E78080B0AA852318242701
:1046E000228597000000E780C0899307840C7146FB
:1046F00081453E8597300000E78060AE130700F8E3
:104700002316240D2304E40CAA85228597000000BB
:10471000E7802087B2402303940C2244924402494C
:104720000545410182808C430507910794C5CC4B18
:1047300094C5B9BF5C4571761306F63F9847D443DC
:10474000058393F6F6EFD4C3D44393E60610D4C39F
:104750001C45D447F18ED4C79376370037870008BD
:10476000130707DD3697034707008D46631ED70002
:10477000A300E500D847896693860640558FD8C7C1
:104780000967D8CB054582800947A300E500D847D3
:10479000856693860640558FD8C7DDB7F147B38746
:1047A000F50279714ECE06D622D426D24AD052CC0A
:1047B00056CA5AC8AA9703A7470D83A6870D83D761
:1047C000C70C5EC662C4158FAA896373F700BA87E7
:1047D000714433848502854A8D07B39ABA00139BCE
:1047E0002500C16B13DA270093CAFAFF4E9BFD1B0D
:1047F0004E9413F9F50F138C890083274B01984FC2
:10480000337777016378EA000327840D8327440D0B
:10481000636FF700B250225492540259F249624A2F
:10482000D24A424BB24B224C0545456182808354AB
:10483000C40C998F63F39700BE848325040D93966F
:10484000040193873400C1824A86628513DA270007
:1048500097F0FFFFE78060688327840D0327040D2E
:104860002697BE948327440D2328E40C232C940C14
:10487000E395F4F883A7C900D85B33775701D8DBF9
:10488000ADBF170300006700030E370500201305B6
:10489000450417030000670003A1411122C4370437
:1048A000002006C69307440483C777008DCB97008A
:1048B0000000E7808012B707002003A5475297D079
:1048C000FFFFE780E0851305C05097C0FFFFE7803A
:1048D000607C1305440497000000E780209B22447D
:1048E000B24037050400410117C3FFFF6700836E24
:1048F000011122CC4EC652C406CE26CA4AC8AA8985
:1049000097D0FFFFE78000312A8A2E8497D0FFFFDF
:10491000E7804030AA842E896314AA00E308B4FE1D
:104920000564370A0020130404FA97D0FFFFE780DC
:10493000602E83278A4E330795403335E500B3D781
:104940008702B3852541B38737036394A500E36EDF
:10495000F7FCF2406244D2444249B249224A05611E
:104960008280011122CC4EC652C406CE26CA4AC845
:10497000AA8997D0FFFFE780E0292A8A2E8497D062
:10498000FFFFE7802029AA842E896314AA00E30888
:10499000B4FE37143D00370A00201304049097D06A
:1049A000FFFFE780202783278A4E33079540333562
:1049B000E500B3D78702B3852541B38737036394F6
:1049C000A500E36EF7FCF2406244D2444249B2498A
:1049D000224A05618280B71702409843B706FFE07C
:1049E000B1061367170098C3D843758FD8C398438F
:1049F000B706F7FEFD16758F98C39843B706FCFF00
:104A0000FD16758F98C3D843B70601DFFD16758F65
:104A1000D8C323A607029843B706F7EAFD16758F99
:104A200098C33707FF0098C794434167D98E94C352
:104A30009307F7FF3717024014431396E6006344C9
:104A40000600FD17F5FBB717024098439316E700E1
:104A500063C3060001A0D843B706C4DFFD16D8C360
:104A6000D843D8C3D84313670740D8C3D843758FFA
:104A7000D8C3D843B7061D20558FD8C3D857BD76A5
:104A8000758FD8D7D857B706000113671700D8D746
:104A90009843558F98C3B717024098439316670001
:104AA000E3DD06FED843719BD8C3D84313672700C4
:104AB000D8C3371702405C43A18BF5DF17D3FFFF44
:104AC000670043F993F7F507F145B387B702411142
:104AD00006C605479385C726AA9723AAC72623ACEF
:104AE000D72623AE072683464500AA956394E600A1
:104AF00023A2C72897F0FFFFE7802061B24001455D
:104B00004101828093F7F507F145B387B702411160
:104B100006C605479385870CAA9723A8C70C23AA26
:104B2000D70C23AC070C83464500AA956394E60096
:104B300023A0C70E97F0FFFFE780804EB2400145EB
:104B40004101828041119397850106C6E18763D5B3
:104B5000070293F5F507F147B385F5029385850CB8
:104B6000AA9585472381F50097F0FFFFE780A062B3
:104B7000B240014541018280F147B385F50293853A
:104B8000C526F9BF41119397850106C6E18763D415
:104B9000070293F5F507F147B385F5029385850C78
:104BA000AA952381050097F0FFFFE7806062B2407D
:104BB000014541018280F147B385F5029385C52601
:104BC000C5B717F3FFFF6700833A054582800325C9
:104BD0004541834705002310F60082800325854167
:104BE000834725002310F6008280832705428A052B
:104BF000AE978843834705002310F6008280411159
:104C000022C426C206C683C705002A84AE848D8BC3
:104C10008DCF05476385E70C0327C40D054561C7A4
:104C200083C7740083C66400A207D58FCDCF63719C
:104C3000F70C8357C40C01456367F70A3375F70215
:104C400055E98547A306F44279A883C7250083C5A3
:104C500035000947A205DD8D93D7850093F5F50F43
:104C6000638CE704636BF7020547E397E7FA1306E3
:104C7000C50D97000000E780C0F52328A40C83C76A
:104C8000740003C76400A207D98F13070004E395DB
:104C9000E7F8A147232EF40C41B70D476387E702DD
:104CA0003D47E39BE7F68327C54103C72700232839
:104CB000F50C231EE50C8DB71306C50D97000000FB
:104CC000E78000F22328A40C81BF9547E3E6B7F400
:104CD0001306C50D97000000E78060F1E5B7832754
:104CE0000543DC478297B2402244924441018280CE
:104CF000232EF40C0145C5BF41114AC006C622C48B
:104D000026C283C7250037090020130989522300D2
:104D1000F900854663EDF6000347650C89442A8453
:104D20001377F70F630797000D466309C7028544A1
:104D300039A8814489CF832705438545DC43829781
:104D4000834709002302F40C8D472303F40CB2407F
:104D500022442685024992444101828091EF8327B3
:104D6000054381459C478297834709002303940CA0
:104D700081442302F40CE1BF8347450C8144E3885E
:104D8000D7FC8327054385459C47829783450900C7
:104D90008327044322852302B40CDC43829745BF5A
:104DA00083C6550003C7450003C60500A206D98E79
:104DB0000D8A8545AA8713F7F60F6303B60411C65B
:104DC00089456302B606054582800347650C89461E
:104DD0006388E6000347650C8D4605456394E60449
:104DE00083C6274103C7074189C6B336E00093E66F
:104DF0002600370700201307C7522300D70029A831
:104E00008346650C0D460545631ED600636CE500C0
:104E1000370700201307C75223A8E70C094723AE22
:104E2000E70C014582800346650C8D450545E39BF3
:104E3000C5FEE206E18663DB0600F1461377F7075D
:104E40003307D7023E978346A70C65B7F146330771
:104E5000D7023E978346E72669BF0347650C89461C
:104E6000AA871377F70F6307D7008D466301D70230
:104E7000054582800347450C054565FF1387470CB0
:104E800023A8E70C054723AEE70C014582800347C2
:104E9000450C79DFE5B78347650C0D476311F702D1
:104EA00003C74500854763EAE70003270543232E30
:104EB000F50C814705072328E50C3E858280854750
:104EC000EDBF8347650C0D476310F70203C745002C
:104ED000854763E9E7008327054303C72500A380CF
:104EE000E70081473E8582808547EDBF03C75500B7
:104EF00083C645002207558F01CB054582800545B5
:104F0000B24022444101828003C7750083C6650018
:104F10002207558F7DF3411122C406C683C52500A3
:104F20000347650C8D4693F5F507A302B50C2A845B
:104F3000E387E6FC97000000E780E0C88347540C55
:104F400091C789472303F40C01455DBF8547DDBF49
:104F5000411106C622C483C705002A878D8B8DCFD9
:104F6000894605446391D7068347650C0D47054480
:104F7000631BF70483C7350003C725000144A2075C
:104F8000D98FB1E383C5450093F7F5078DCF97001F
:104F90000000E78060BB05A88347650C89466388ED
:104FA000F6008347650C8D460544639EF60083C773
:104FB000350083C625000144A207D58F854663943A
:104FC000D7002309F7402285B24022444101828064
:104FD000411126C206C622C44AC003C70500AA84DE
:104FE0000D8B29C7894605496319D7060347650C08
:104FF0008D4605496393E60603C7350083C6250041
:1050000001492207558F31EB03C745009376F70717
:10501000A9C62E84BA8597000000E780E0B683A772
:105020000443A2852685DC47829705A80347650CC3
:1050300089466388E6000347650C8D460549639EF3
:10504000E60003C7350083C6250005492207558FB2
:1050500063152701238904400149B24022444A854F
:10506000924402494101828001458280014582804B
:1050700083C7150013972700B707000893870739E0
:10508000BA9703A3070002838346650C0D46854744
:105090006310D60283C64500854763EBD70083279C
:1050A0000543411106C6DC478297B2404101828028
:1050B0003E8582800145828041119305000806C625
:1050C00022C42A8497000000E78000A82285814539
:1050D00097000000E78040A722852244B2404101AA
:1050E00017F3FFFF670023188356C50D0326050D30
:1050F0004111814522C406C62A8497000000E7803A
:10510000A0A00357C40C8326C40D89476373D7003E
:1051100085472306F442B240224401454101828082
:1051200083560528032645274111814522C406C61A
:105130002A8497000000E7802099035704278326DC
:10514000042891476373D7008D472306F442B24089
:105150002244014541018280411106C622C495477F
:105160002306F5428146014681452A8497000000C6
:10517000E7808099228597F0FFFFE780C00EB2405C
:105180002244014541018280411106C622C499474B
:105190002306F5428146014681452A849700000096
:1051A000E7808092228597F0FFFFE780C00BB24036
:1051B00022440145410182808327454203278542DD
:1051C000011122CC3EC43AC606CE93F70706130758
:1051D00000022A84638AE70213070004638CE70253
:1051E000B9EF2C0097000000E780C0E829E9835759
:1051F000E1009DE7228597000000E78020F6F2405D
:1052000062440145056182802C0097000000E78020
:10521000E0E7E9BF2C0097000000E780E0E9F9B77C
:1052200083078100228563D7070097000000E7808D
:10523000E0EBF1B797000000E780C0EEC9B72C00A3
:10524000228597000000E78060E755BF797106D698
:1052500022D40018232EA4FCAE87A30DF4FC8347B0
:10526000B4FDC1EB8327C4FD9387C7262326F4FE34
:105270008327C4FD83C7C7420D476386E7001147F4
:105280006386E7024DA08327C4FEDC4B0327C4FEE0
:10529000035747003387E7408327C4FED8CB032555
:1052A000C4FD97000000E780E0E7B5A88327C4FDB0
:1052B00083C7670C13F7F70F8D476311F702832736
:1052C000C4FD83A70743DC4B91CB8327C4FD83A791
:1052D0000743DC4B81450325C4FD82978327C4FE29
:1052E00023AA07000325C4FD97000000E78000E71C
:1052F0001DA88327C4FD83A70743DC4B8DC78327E5
:10530000C4FD83C7670C13F7F70F8D47631DF700C4
:105310008327C4FD83A70743D84B8347B4FDBE85CD
:105320000325C4FD029781473E85B2502254456152
:105330008280797106D622D40018232EA4FCAE8771
:10534000A30DF4FC8347B4FDDDEB8327C4FD9387F5
:10535000870C2326F4FE8327C4FD83C7C742054775
:105360006386E70009476386E702E1A08327C4FE5E
:10537000DC4B0327C4FE035747003387E7408327EE
:10538000C4FED8CB0325C4FD97000000E78000D6FB
:105390004DA08327C4FD83C7D74299CF81460146DC
:1053A00081450325C4FD97F0FFFFE780E075832763
:1053B000C4FDA3860742B5A88327C4FD83C7670C35
:1053C00013F7F70F8D476311F7028327C4FD83A7F7
:1053D00007439C4B91CB8327C4FD83A707439C4B7A
:1053E00081450325C4FD82978327C4FE23AA0700B5
:1053F0000325C4FD97000000E78040D91DA883273E
:10540000C4FD83C7670C13F7F70F8D476313F702CB
:105410008327C4FD83A707439C4B81CF8327C4FD0B
:1054200083A70743984B8347B4FDBE850325C4FD7E
:10543000029781473E85B2502254456182804111D6
:105440001305906006C622C497C0FFFFE78080C4A2
:105450001305206097C0FFFFE780C0C337140140E9
:1054600013050480BD460D46814597C0FFFFE780C8
:1054700000B79306000F0D4681451305048097C0C1
:10548000FFFFE780C0B51305906097C0FFFFE7807E
:1054900060C00D453724014097C0FFFFE78040C43E
:1054A0001305044097B0FFFFE780206F014597B0D8
:1054B000FFFFE780807313050440814597B0FFFF2D
:1054C000E780A074130504402146854597B0FFFF8F
:1054D000E780607D1305044089460146814597C0F9
:1054E000FFFFE780E08013050440894605468545B7
:1054F00097B0FFFFE780C07F130504408946094647
:10550000894597B0FFFFE780A07E130504408946D8
:105510000D468D4597B0FFFFE780807D1305044061
:1055200089461146914597B0FFFFE780607C1305DF
:10553000044089461546954597B0FFFFE780407BBC
:105540001305044089461946994597B0FFFFE78047
:10555000207A8946130504401D469D4597B0FFFFFC
:10556000E78000791305044037060E00854597C093
:10557000FFFFE780C083130504400546854597C0BB
:10558000FFFFE7800086854521461305044097B05C
:10559000FFFFE780E06C1305044097B0FFFFE78052
:1055A0006068054597F0FFFFE780408613050440DB
:1055B00097B0FFFFE78000681305044097B0FFFF36
:1055C000E7806069054597F0FFFFE78020841305B9
:1055D00004402244B2408545410117C3FFFF6700E4
:1055E000E3835171A2D5CAD12AC62E89328481455E
:1055F00013060008881086D7A6D397200000E780FE
:1056000000BE130670038145281097200000E78034
:1056100000BDB70400089385843C45469385050387
:10562000480897200000E78020BAB24630100147B2
:105630009385843C634487049C1106043706000864
:105640003E9438101306C6409385C5048810230481
:1056500004F497200000E78080B9881097200000AC
:10566000E78040BFAA85881097100000E78060BEE1
:10567000BE502E549E540E596D618280B307E900CE
:1056800083C707008411050713D54700BD8B2695F6
:10569000A697034545F383C747F30906230FA6FEE4
:1056A000A30FF6FE41BF93978500C205C181A1817A
:1056B0000111DD8D2316B10009466C0006CE97005E
:1056C0000000E78040F2F24005618280A1477D152D
:1056D0003365F50237170020B70700201307075E70
:1056E0009387874706052A973E958315070003553C
:1056F000050017030000670043FB37050008411150
:1057000091451305054206C697100000E78060B476
:10571000B24013052003410117E3FFFF6700036F49
:10572000372501402D71894513050540232E1110A1
:10573000232C8110232A911097B0FFFFE78000707F
:10574000631105182A84130600108145080802C059
:1057500002C202C402C697200000E78040A8B71723
:1057600000209387075E41473306F4000356060086
:10577000B306810009042390C600E317E4FE372432
:10578000014089451305044097B0FFFFE780A06BF7
:1057900085451305044097B0FFFFE78020688945E1
:1057A0003705004097C0FFFFE78060FE8547631A1A
:1057B000F510B70400209387045398433704002062
:1057C00093840453050798C398439307803E1304BA
:1057D00084536317F70023A004001C4085071CC0F6
:1057E0009840930700326319F7000840420541854D
:1057F00097000000E780C0ED1440B70700201307B2
:10580000C003938747536397E6002320040098431F
:10581000050798C38C431040944008089700000087
:10582000E780A02283550100080897000000E78068
:10583000003283552100080897000000E7802031DE
:1058400083554100080897000000E78040308355E9
:105850006100080897000000E780602F83558100F1
:10586000080897000000E780802E8355A1000808F3
:1058700097000000E780A02D8355C100080897001D
:105880000000E780C02C8355E10008089700000065
:10589000E780E02B080897200000E780A09BAA85FE
:1058A000080897000000E780802D08089700000096
:1058B000E780E03589453705004097C0FFFFE78066
:1058C00020EE8320C111032481118324411115612D
:1058D000828041111305306006C697B0FFFFE78054
:1058E000607BB240371501409D460D46C14513050A
:1058F00005C0410117B3FFFF6700636E3715014014
:1059000005468945130505C017B3FFFF6700E37718
:105910003715014001468945130505C017B3FFFF40
:105920006700A3763715014005468545130505C078
:1059300017B3FFFF670063753715014001468545C2
:10594000130505C017B3FFFF670023747971014683
:1059500085451305F00206D622D426D297B0FFFF64
:10596000E78000641305007097B0FFFFE780807246
:105970003705004097C0FFFFE7808095080897C073
:10598000FFFFE78000A2370400208327844E13071F
:10599000007D0C08B3D7E70285443705004026C8D0
:1059A000231A0100231E01003ECC97C0FFFFE780B1
:1059B000C0A0480097C0FFFFE780A0A95000814524
:1059C0003705004023129100231401002316010023
:1059D00097C0FFFFE78080A90326844E85679387E1
:1059E00007FA3356F60281453705004097C0FFFF9E
:1059F000E780E0D0014681453705004097C0FFFFB2
:105A0000E78080CA014681453705004097C0FFFF07
:105A1000E78040D189453705004097C0FFFFE78008
:105A2000C0D589453705004097C0FFFFE78040D7C4
:105A30003705004097C0FFFFE78000A1B250225415
:105A4000925445618280A94733C7F50223050500BA
:105A5000130707032300E5003347F6021307070384
:105A6000A301E5001307400633C7E6023367F702D8
:105A7000130707032303E50033C7F602B3E5F50276
:105A80003366F60293850503A300B5009305E00293
:105A90002301B500A302B5003367F702130606031E
:105AA0002302C500B3E6F602130707039307B0030A
:105AB000A303E500A304F500938606032304D500A1
:105AC0008280AA8763D305061307D0022300E5006E
:105AD000B305B04005479306803E29453386A602AC
:105AE00063D3C5062E859308000329483346D502A3
:105AF000130606031376F60F631416016357B500F9
